:020000040000fa
:080000000001040000000000f3
:020000040000fa
:0400080042020000b0
:020000040000fa
:04000c0042020000ac
:020000040000fa
:0400100042020000a8
:020000040000fa
:0400140042020000a4
:020000040000fa
:0400180042020000a0
:020000040000fa
:04001c00420200009c
:020000040000fa
:040020004202000098
:020000040000fa
:040024004202000094
:020000040000fa
:040028004202000090
:020000040000fa
:04002c00420200008c
:020000040000fa
:040030004202000088
:020000040000fa
:040034004202000084
:020000040000fa
:040038004202000080
:020000040000fa
:04003c00420200007c
:020000040000fa
:040040004202000078
:020000040000fa
:040044004202000074
:020000040000fa
:040048004202000070
:020000040000fa
:04004c00420200006c
:020000040000fa
:040050004202000068
:020000040000fa
:040054004202000064
:020000040000fa
:040058004202000060
:020000040000fa
:04005c00420200005c
:020000040000fa
:040060004202000058
:020000040000fa
:040064004202000054
:020000040000fa
:040068004202000050
:020000040000fa
:04006c00420200004c
:020000040000fa
:040070004202000048
:020000040000fa
:040074004202000044
:020000040000fa
:040078004202000040
:020000040000fa
:04007c00420200003c
:020000040000fa
:040080004202000038
:020000040000fa
:040084004202000034
:020000040000fa
:040088004202000030
:020000040000fa
:04008c00420200002c
:020000040000fa
:040090004202000028
:020000040000fa
:040094004202000024
:020000040000fa
:040098004202000020
:020000040000fa
:04009c00420200001c
:020000040000fa
:0400a0000402000056
:020000040000fa
:0400a4004202000014
:020000040000fa
:0400a8004202000010
:020000040000fa
:0400ac00420200000c
:020000040000fa
:0400b0004202000008
:020000040000fa
:0400b4004202000004
:020000040000fa
:0400b8004202000000
:020000040000fa
:0400bc0042020000fc
:020000040000fa
:0400c00042020000f8
:020000040000fa
:0400c40042020000f4
:020000040000fa
:0400c80042020000f0
:020000040000fa
:0400cc0042020000ec
:020000040000fa
:0400d00042020000e8
:020000040000fa
:0400d40042020000e4
:020000040000fa
:0400d80042020000e0
:020000040000fa
:0400dc0042020000dc
:020000040000fa
:0400e00042020000d8
:020000040000fa
:0400e40042020000d4
:020000040000fa
:0400e80042020000d0
:020000040000fa
:0400ec0042020000cc
:020000040000fa
:0400f00042020000c8
:020000040000fa
:0400f40042020000c4
:020000040000fa
:0400f80042020000c0
:020000040000fa
:0400fc0042020000bc
:020000040000fa
:0401000042020000b7
:020000040000fa
:0401040042020000b3
:020000040000fa
:0401080042020000af
:020000040000fa
:04010c0042020000ab
:020000040000fa
:0401100042020000a7
:020000040000fa
:0401140042020000a3
:020000040000fa
:04011800420200009f
:020000040000fa
:04011c00420200009b
:020000040000fa
:040120004202000097
:020000040000fa
:040124004202000093
:020000040000fa
:04012800420200008f
:020000040000fa
:04012c00420200008b
:020000040000fa
:040130004202000087
:020000040000fa
:040134004202000083
:020000040000fa
:04013800420200007f
:020000040000fa
:04013c00420200007b
:020000040000fa
:040140004202000077
:020000040000fa
:040144004202000073
:020000040000fa
:04014800420200006f
:020000040000fa
:04014c00420200006b
:020000040000fa
:040150004202000067
:020000040000fa
:040154004202000063
:020000040000fa
:04015800420200005f
:020000040000fa
:04015c00420200005b
:020000040000fa
:040160004202000057
:020000040000fa
:040164004202000053
:020000040000fa
:04016800420200004f
:020000040000fa
:04016c00420200004b
:020000040000fa
:040170004202000047
:020000040000fa
:040174004202000043
:020000040000fa
:04017800420200003f
:020000040000fa
:04017c00420200003b
:020000040000fa
:040180004202000037
:020000040000fa
:040184004202000033
:020000040000fa
:04018800420200002f
:020000040000fa
:04018c00420200002b
:020000040000fa
:040190004202000027
:020000040000fa
:040194004202000023
:020000040000fa
:04019800420200001f
:020000040000fa
:04019c00420200001b
:020000040000fa
:0401a0004202000017
:020000040000fa
:0401a4004202000013
:020000040000fa
:0401a800420200000f
:020000040000fa
:0401ac00420200000b
:020000040000fa
:0401b0004202000007
:020000040000fa
:0401b4004202000003
:020000040000fa
:0401b80042020000ff
:020000040000fa
:0401bc0042020000fb
:020000040000fa
:0401c00042020000f7
:020000040000fa
:0401c40042020000f3
:020000040000fa
:0401c80042020000ef
:020000040000fa
:0401cc0042020000eb
:020000040000fa
:0401d00042020000e7
:020000040000fa
:0401d40042020000e3
:020000040000fa
:0401d80042020000df
:020000040000fa
:0401dc0042020000db
:020000040000fa
:0401e00042020000d7
:020000040000fa
:0401e40042020000d3
:020000040000fa
:0401e80042020000cf
:020000040000fa
:0401ec0042020000cb
:020000040000fa
:0401f00042020000c7
:020000040000fa
:0401f40042020000c3
:020000040000fa
:0401f80042020000bf
:020000040000fa
:0401fc0042020000bb
:020000040000fa
:10020000cff420000e7f22000e01880000000000c5
:10021000000020000000e000020032000001200089
:100220002002880014000700980007000000e0008a
:1002300003003a00e04222000100200002003700e3
:100240000000200001002000810f7000010032003a
:1002500014000700000020000000e000020032004f
:100260000000020000000000602502000000000005
:100270000040da000000fe004440a9000012200007
:100280000000e00003003200002020009001880000
:100290004440a800000006008a1f78008b1f7800e9
:1002a00000000600a1028800800478000000eb0036
:1002b0001f003700e284440054a0b4009905ba003e
:1002c000e284440054a0b4009906ba00e2844400d9
:1002d00054a0b4000006eb00476fde00fd07b2003b
:1002e000ae018800636ce10003003a00eaff0700fa
:1002f0000000eb000e003700606ce10008003a00df
:10030000004deb000a05e800020039003420ec0043
:100310000af0a0008b05e900f9ff3e000400370059
:100320006168e100010032000086eb000b0007006d
:1003300019c7ba001905ba000e04e00003003a001c
:100340000a00e000dbff3a0000000600fe07b200f2
:10035000ae0288008a047800f5ff37000cd0a300b5
:10036000e20f4d001c00390089027800354dba00bb
:100370000a05e800020039003420ec000af0a00071
:100380008b05e9000f003200254dba000a05e80090
:10039000020039003420ec000af0a0008b05e900cf
:1003a000080032000c00e0000600320015cdba0053
:1003b0000a05e800020039003420ec000af0a00031
:1003c0008b05e9008984e80054a0b4000b00e0002c
:1003d000e2ff3a00000006009902ba00055d7800cd
:1003e0008b05e900f7ff3200c82ade00055d7800c2
:1003f0008b05e900f3ff32000c00e000f1ff320052
:1004000019ddba00eeff37003600f800809fbe000d
:10041000829fbe00849fbe00869fbe003200f8000f
:100420003400f80010002000a00188000020200007
:10043000900188000200fa0004003700a01d80002f
:10044000004f78001e4078009f0f0700801d80003d
:10045000610060000000e000f8ff3a008bc0a900d6
:100460000080fa003400f9003200f9004f03be00aa
:100470004f02be004f01be004f00be003600f90023
:10048000004006000040da000000fe000000050009
:100490000000fa0068815700cfb89700e00207001b
:1004a0000080fa000000060002000700e0023700aa
:1004b000000006004200fa00889fbe008a9fbe002e
:1004c0008c9fbe0020079800110f9800034f9800e2
:1004d00011007800400f980091009000610f980083
:1004e0009e099000a3019000330f98001e0a90000f
:1004f00044029000140798009e0a9000b5029000f4
:10050000052798003204be002205be006022b80014
:100510006033b8000800be000a01be00750607007f
:100520000000e00003003d000bf0a200d0c2b300c9
:10053000040037004e0b90000628a300090032008b
:10054000b0c2b3008e239000804b78003e0890002c
:100550000000e900700f980011002000510f980072
:10056000100037004e0990000238a3000900320045
:1005700000c2b3008e219000804978003e0a9000ae
:100580000402e900740f980015002000550f980030
:10059000040037003e0b9000760f98008003eb00bc
:1005a000570f98000800be000a01be00c0ff0700f8
:1005b000f4ff2f00f5ff2f00f6ff2f00f7ff2700b5
:1005c0000402600085826000060361008783610089
:1005d0006000b8000200200003ff27000020e100b7
:1005e00001a8e10002b0e10003b8e10011003a0007
:1005f0000e4890008000fb001104b1000e21900015
:10060000de09900003004100f98f500002003e0017
:10061000a1f3200001003700e1f3200030050700be
:10062000e0f32000350507005e0a90000401400059
:10063000150037000020e10001a8e10002b0e10050
:1006400003b8e100130036008e4a90008500fb00dd
:100650001104b1000e239000de0b90000700430050
:10066000f98f500002003e0021f420000100370005
:1006700061f420001a05070060f420001f05070040
:10068000de089000010140004e0a9000be09900073
:10069000500237006022b8006033b8000800be0086
:1006a0000a01be00130607000000e0006a003200e5
:1006b0006022b8000600200007ff230044179800be
:1006c0005517980066179800771798008006eb007a
:1006d0000800be000a01be00001f9800111f98000c
:1006e000221f9800331f98000e2690000700370045
:1006f0008d06e8000802be000a03be0044179800f9
:100700005517980066179800771798006022b80070
:1007100006002000470224004e109000de109000da
:100720006e119000fe119000620707000004be00e9
:100730000205be000002be000203be000e189000bb
:100740009e1890002e199000be199000e905070030
:100750000000e000e6ff3d000c2798000006eb00db
:100760004e149000de1490006e159000fe1590005f
:100770002500370040ed2f00808f560019003d0006
:100780000c00e00016003a006022b80006002000cd
:10079000073524000e1890009e1890002e19900026
:1007a000be199000430707000002be000203be000e
:1007b000041f9800151f9800261f9800371f9800e7
:1007c0006022b80006002000073524000800be00a3
:1007d0000a01be00370707000004be000205be0084
:1007e0001c0020006022b800060020004702240000
:1007f0000800be000a01be007f0607000004be001c
:100800000205be008d06e9000802be000a03be0014
:100810000e1890009e1890002e199000be1990009e
:10082000b40507000000e000d2ff35000800be005c
:100830000a01be00401798005117980062179800ef
:10084000731798000e1c90009e1c90002e1d9000a7
:10085000be1d9000080037006022b800060020008e
:1008600007ff230044179800551798006617980053
:10087000771798008006eb008e4a90000500fb0079
:10088000b6040700104f98006e0b90006000200027
:100890000600e000010035006e08900071c6b3004c
:1008a0009e4b900081cf53000a003a00ee08900062
:1008b0000100e000cf013200cf0137008d0f500062
:1008c000d3013c00001f980052c6b300425f98005d
:1008d0001e0037009e499000435f980002003700d9
:1008e00064c6b300445f98000000e800001f980051
:1008f00060c6b300ce5a900080cf520013003a0079
:100900000d00e00008003d006000b800020020007b
:1009100003ff2300401798005117980062179800b2
:10092000731798008006eb0061c6b300415f980022
:1009300070c6b3001e499000804f51000300320082
:100940008e1990008d814100031f98004e12900077
:10095000de1290006e139000fe139000441f98006a
:10096000551f9800661f9800771f98000800be006a
:100970000a01be000017980011179800221798006e
:10098000331798000006eb000802be000a03be0001
:10099000540798006507980076079800070f98009d
:1009a000310037004e1a9000de1a90006e1b900046
:1009b000fe1b90000e1090009e1090002e119000d3
:1009c000be1190000c060700640807000004be007a
:1009d0000205be007005070080027800250f980010
:1009e0004e1a9000de1a90006e1b9000fe1b9000c5
:1009f0000800be000a01be00ae0607000e129000fd
:100a00009e1290002e139000be139000a9050700bf
:100a10000002be000203be0007f0a2000417980007
:100a20001517980026179800371798006022b8000d
:100a300006002000470224004e189000de189000a7
:100a40006e199000fe199000eb0507000002be0031
:100a50000203be00441f9800551f9800661f9800af
:100a6000771f98000c06e8008e1a9000850f56003c
:100a7000ccff35005e049000ee0490007e059000ef
:100a80008e0d90006022b80006002000470124006f
:100a90004e189000de1890006e199000fe1990001c
:100aa000840607000002be000203be00441f980037
:100ab000551f9800661f9800771f98000e10900031
:100ac0009e1090002e119000be11900009050700a5
:100ad0000000e0000f0035004e1a9000de1a900072
:100ae0006e1b9000fe1b90000e1090009e10900058
:100af0002e119000be119000fe0407000000e000df
:100b000011003a00ae0a90000508a3000800320068
:100b10000d0037006000b8006011b800401f980059
:100b2000511f9800621f9800731f9800060037003d
:100b30006022b8006033b800441f9800551f980029
:100b4000661f9800771f98004e1a9000de1a9000da
:100b50006e1b9000fe1b90000800be000a01be0044
:100b60005a0507000002be000203be0004179800e9
:100b70001517980026179800371798006022b800bc
:100b800006002000470224004e109000de10900066
:100b90006e119000fe119000460607000004be0092
:100ba0000205be000002be000203be000e1090004f
:100bb0009e1090002e119000be119000d2040700ec
:100bc0000000e000090035008d06e80060c6b300b3
:100bd000ce5a900080cf520008003a000e1b9000c1
:100be0000603e800061f9800110037004e1490001d
:100bf000de1490006e159000fe15900050c6b300f4
:100c00004e599000804f510009003a000802be0082
:100c10000a03be00441f9800551f9800661f9800e5
:100c2000771f98008002eb004517980007003700f7
:100c30000800be000a01be00401f9800511f980026
:100c4000621f9800731f98004d1798005e0e900069
:100c50000001eb00220f980032079800520798001d
:100c60000d0f78006a0037004e1a9000de1a9000cf
:100c70006e1b9000fe1b90000e1090009e109000c6
:100c80002e119000be1190005b050700b30707000e
:100c90000004be000205be00bf040700e90f5000bb
:100ca0000100340090002000ce0990000348a3000a
:100cb0000c003a000000e0000a003a0071c6b300e0
:100cc0001e4a9000814f520006003a00ce1290005a
:100cd0000500e00003003d002e0b90008606e800b2
:100ce00023003700be0390000700e0000c003a002c
:100cf000ce1090000100e00009003d00e1c2b30009
:100d00000e21900001717e000c06e800fe099000a3
:100d10008301e900730f9800140020003407980045
:100d20008e2290000c814200ae0e9000850178006a
:100d30000300370001c3b300015978008d06e900b4
:100d40000d00e000fbff3a00032798002e0b9000f7
:100d5000060646000043b00080717e000c06e800e5
:100d60000680ea00fe0b900080834300770f980016
:100d70004e1a9000de1a90006e1b9000fe1b900031
:100d80000800be000a01be00ca0507000e1290004e
:100d90009e1290002e139000be139000c504070011
:100da0000002be000203be0007f0a2000417980074
:100db0001517980026179800371798006022b8007a
:100dc00006002000470224004e189000de18900014
:100dd0006e199000fe199000070507000002be0082
:100de0000203be00441f9800551f9800661f98001c
:100df000771f9800ce1290008502e90045179800f1
:100e00005e0390000603e800560798002d0f980037
:100e1000de0390000e189000808f530005003d0007
:100e20009e0890004100900065005000800f560021
:100e30008dff39009e0678003e0190000200e00020
:100e400007003a00ce0990000348a30004003200d6
:100e5000e0c2b3000e22900000727e000c06e80093
:100e60008e2290000c8042000048eb0051c6b30077
:100e70004e5b9000814f530038003a009e03900073
:100e80008700e9000041eb0082f278008001eb006e
:100e90000d00e00002003d008d06ea001300200076
:100ea0002200200001037800fe0a90008e239000ab
:100eb000000478000a00370001037800a400200035
:100ec000110009008406d80001027800800678002d
:100ed0000443b00084737b000201e9008502e9004d
:100ee0008600e9000d00e000f3ff3a000200e00098
:100ef000f1ff3c00750f9800072798000800780064
:100f000001824300b2c2b3000300e00001003200de
:100f1000d2c2b300024a78000101e9008e2190009c
:100f2000828041008e4a90000502fb001404b1004b
:100f300053c6b300f90f520001003e0053c4b30082
:100f4000834878007e0b90000683e900760f9800b6
:100f5000820f560001003d00e1020700ce0b900019
:100f600063806300e20f500015003a007e08900095
:100f70000000e000120034000e209000df020700a5
:100f80008e219000040037007e099000828041008d
:100f9000e37078000000e900de0a9000850f500041
:100fa000f9ff3d0003279800058041007e0990006d
:100fb00001032000660207000003eb00360f9800d3
:100fc0000e209000cd0207004e0a9000be0990004e
:100fd000000178008e2090002e009000460007004f
:100fe0004f06be004f05be004f04be000080fa0051
:100ff0000000060010002000e48f46002ffe3d0098
:10100000001f980057c6b300475f98004ffe370097
:101010000d00e00032fe3500001f980042fe370050
:101020008201780001017800f1ff2700d202370029
:10103000881f78000004780000082000808f50008e
:101040001700350010082000808f50000b0034007e
:1010500030082000808f500011003a009200780084
:1010600068805000000978003002be002003be00f6
:10107000049cbe000694be00070037009202780070
:1010800064805200000978001000be00a30307002e
:10109000009cbe000294be0010002000010037003a
:1010a0000000eb004f04780000000600889fbe009f
:1010b000000478004800900082047800808f54007b
:1010c0000100360080047800090178005800900083
:1010d00018020700580090000900400050049800d2
:1010e000c800900089845000490498000048eb0033
:1010f0004f04be0000000600f2874700889fbe0034
:101100008a9fbe008c9fbe008e1f780080047800ee
:101110000105780002047800830578006107620009
:1011200002003a008b0f54000800390008017800d3
:101130008a00780009007800dcff07008b0f54005c
:1011400002003900880578001e0037000886550027
:101150000c017800f00f560001003600020120005b
:10116000010220007e805700f90107008c067800fc
:101170000500370002012000fe80570009007800ba
:10118000caff0700f0865600ef8f5600f9ff3e00b9
:101190004461de0000ff2f000091b900020146000b
:1011a000fe80570009007800c0ff07000e00e00035
:1011b00004003a00080178008a00780009007800ed
:1011c000baff07000b0078004f0778004f06be00fb
:1011d0004f05be004f04be002f01b1000000060005
:1011e0000000050000000500000005000001780077
:1011f0000040eb008080fb008180400043f2200033
:1012000063c278000404e00003003a0050f22000ba
:1012100060c078000000060092017800934f5200f1
:1012200004003a0050f2200060c078000309e80092
:10123000010037000040e800ea4f5000edff3600a3
:1012400000000600f6874700889fbe008a9fbe0008
:101250008c9fbe008e1f7800000578000104780086
:1012600083057800040678000000eb00c0b79f00fb
:101270008080eb00d1b79f00e0b79f00f2b79f00de
:101280000008200080bf9f009800780001007800cf
:101290008004eb00010037008904e8003041780049
:1012a0000204e0000300320053c2b300834f510038
:1012b000f9ff3a000900e00004003200090178005b
:1012c0000a00780079ff0700188c4400180778009e
:1012d00050c2b3009e4f10003f013a000e07e800d5
:1012e0000e0c780010003700cfb097000100a0006e
:1012f0000b003700cfb097000110a00008003700a6
:10130000cfb097000120a00005003700cfb09700b4
:101310000130a00002003700cfb097000140a000cc
:10132000c1b79f00000ce8001800780090407800da
:10133000b2c2b30082cf5000f1ff320007003c0080
:1013400002c2b30082cf5000f0ff320032c2b300bd
:1013500082cf500007003a00efff3700d2c2b3003f
:1013600082cf5000e0ff320002c3b30082cf5000b2
:10137000e0ff3200a2c2b30082cf50000d003a005d
:10138000000ce8001c80e900000e780010007800d6
:10139000e0b79f000000e0000f003d00cfb09700d5
:1013a0000100a200c1b79f000000ea00e0b79f0063
:1013b0000900370039010700e0b79f00010037003e
:1013c000000ce800180078009000fb000103b10059
:1013d000e98f5000faff36004fb097000008a300d5
:1013e000020032000010a100c0b79f001800780072
:1013f000e1c2b30090cf100016003a008000eb006d
:10140000d1b79f000000e800000c7800a1c2b30033
:1014100090cf100006003a00000ce8001c80e900a4
:10142000000e780010007800d0b79f000900370048
:101430001a010700d0b79f0001003700000ce80038
:10144000180078009000fb000103b100e98f500004
:10145000faff36000800780064ff07008046780035
:10146000180078001000fb00bc0107009106200066
:10147000810f50003800320012003c00410620006d
:10148000810f5000340032000a003c001106200099
:10149000810f50002000320031062000810f5000e3
:1014a000a000320051022000810f5000bc003a0021
:1014b000b400370071062000810f5000b8003c00d6
:1014c0008800370001072000810f50005c003200c7
:1014d00007003c00e1062000810f50007a00320036
:1014e000f1062000810f5000ad003a0039003700ae
:1014f00051072000810f5000270032008107200093
:10150000810f50004200320031072000810f50004f
:10151000a3003a008f0037008d80fb000c0178009b
:1015200000fe2f000f004000c1fe07000000e00099
:10153000a800320018007800000ce8009041780004
:1015400002fe2f000f014100f88057000a007800ca
:1015500024ff07000e0037008d80fb008c0178000f
:101560001200200000fe2f000f004000a70107001e
:101570000000e00097003200180ce80002fe2f0087
:101580000f014100f88057000a00780014ff07009f
:1015900080844400900037008d80fb008c0178002f
:1015a0000001eb0000fe2f000f0040009701070034
:1015b0000000e00087003200180ce80002fe2f0057
:1015c0000f014100f88057000a00780004ff07006f
:1015d000efff37008d80fb008c0178000001eb00ed
:1015e00000fe2f000f004000880107000000e0000f
:1015f00078003200180ce80002fe2f000f014100b5
:10160000f88057000a007800f5fe0700e0ff370079
:101610008d80fb008c0178000001eb0000fe2f00a4
:101620000f004000790107000000e000690032006f
:1016300018007800000ce800904178001c0037008a
:101640008c0178000001eb00010f200000fe2f004c
:101650000f0040006d0107000000e0005d00320057
:10166000180ce8000fb097009fb097002fb19700bb
:10167000bfb19700e00f5000e08f5800e00f590015
:10168000e08f590009003a00cfb597006fb497007a
:10169000c0f12000190107000b02780088017800d2
:1016a00000017800c1f120004700370083c7b30074
:1016b00002fe2f000f014100f88057000a00780059
:1016c000c8fe0700b2ff37000b8144008d80fb008d
:1016d0008c01780000fe2f000f0040009f010700e2
:1016e0003c0037008d80fb000c01780000fe2f00cd
:1016f0000f0040004efe07000000e0003500320001
:1017000018007800000ce8009041780002fe2f00dd
:101710000f014100f88057000a00780065fb0700c0
:101720009bff370000c8b30080cf560029003a0065
:10173000180ce8001c80e900000e780010407800ca
:10174000e0df9f0013002000e2fd2f000f014100a9
:101750000800370000c8b30080cf56001d003a00d3
:10176000180ce8001c80e900000e78008001eb00f6
:1017700010017800f88057000a0078009afe0700f0
:1017800083ff370000c8b30080cf560011003a0035
:10179000180ce8004fb29700efb19700080037002f
:1017a0000e0c78000000eb00c0b79f00e0b79f0070
:1017b0000080eb00d0b79f000002eb0084017800ae
:1017c0001200200021f220000a0078004afe0700e3
:1017d0006fff3700180ce800090078004f07780009
:1017e0004f06be004f05be004f04be006f01b100a2
:1017f000000006008200fa00889fbe008a1f780061
:101800000005780082047800c13f9f000004eb00cf
:10181000100037000902780088017800a2f72f0035
:101820000f01410081f72f008f8040000a007800ef
:1018300084fe070008004000880f500004003d00af
:10184000b0042000507a88000084eb0004003700c8
:10185000000478004f3897001004e000edff3a00d4
:10186000080078004f0578004f04be000080fa00a1
:101870000000060080007800100020000202200016
:10188000828f500004003200e9805000e48f500045
:10189000010036000000eb0000000600889fbe003b
:1018a0008a1f7800000578000a04780098447800c0
:1018b0000805e8000900fb00eeff07000000e0005b
:1018c000f9ff3a00b0c2b30080cf540005003200e7
:1018d000d0c2b3008000eb0080cf540005003a0076
:1018e000020037008000eb000100370011002000eb
:1018f0000804e8000000eb00030037006a02b900aa
:10190000020052000003b0003801fb0003fd2f006d
:1019100082814100e98f5100f8ff36000100e000ac
:1019200001003a000000ea004f0578004f04be00b5
:10193000000006008001780002003700b1597800ed
:101940000201e9000200e000fcff3a00000006008e
:10195000889fbe008a9fbe00800478000200e000dd
:101960005b00320001407800814c780082814400a5
:10197000f1f99f00e20f51005500360091449800a4
:10198000a1449800e1f99f00d1f99f00e60f5100b2
:101990004f003600b1449800c1f99f00e80f510094
:1019a0004b0036000905ea00630565000a8444001f
:1019b0000a055100c1ff2f00010565000080fb00f2
:1019c0008000eb001210200013102000b30107006c
:1019d000008cbe000a01440060b99f0071b99f00ed
:1019e000e80f55003a0036002004980031049800b2
:1019f000400498005104980020b99f0031b99f001d
:101a000040b99f0051b99f00f80f550030003600d3
:101a10006004980071049800000c9800110c980064
:101a2000200c9800310c9800400c9800510c980044
:101a300020b19f0031b19f0040b19f0051b19f0084
:101a400060b19f0071b19f0000b99f0011b99f0064
:101a5000640164007801410002044400020555005d
:101a60006011b8000203be000002be000403be0005
:101a70006022b800000072008180720002017300d1
:101a80008381730010003700009cbe000294be00ea
:101a90004004980051049800620498007304980070
:101aa000000c9800110c9800220c9800330c980040
:101ab000400c9800510c9800620c9800730c980030
:101ac0000a02b1000802b000ff0f5500eeff3e0011
:101ad000090078004f05be004f04be00000006005c
:101ae000881f78000004780008007800d300070001
:101af000080078004f04780000000600800078009d
:101b0000040037003104e00002003a0000005100f8
:101b100000000600010178000108a300f9ff3a0067
:101b20008101780031017800f4ef2f0002024200b9
:101b30000281ea0002016200040828000401610039
:101b4000f7ff320083007800010178003104e000e3
:101b5000fdff3a000000510000000600f1fb2f00dd
:101b600080804000f98f500001003e000050a0002e
:101b700000000600f9ff3700f28747008e1f78004b
:101b800002027800030178000000e0000200320049
:101b90000007780001003700728757008002eb00d1
:101ba0000100e000010032008102e900708057006e
:101bb000060009000018eb000080eb0080bf9f00ca
:101bc0002310200093bf9f00aebf9f00b1bf9f00b6
:101bd000c5bf9f000100e00003003d00b1042000ec
:101be000517a880006003700004feb00eebf9f00df
:101bf000debf9f008400780070805700af000700b0
:101c00004f0778002f01b100000006008408200073
:101c1000848f50001d0032000d003c00140820008d
:101c2000848f50002700320002003c00040820008e
:101c30000400370024082000848f50003400320054
:101c400044082000848f500043003a0036003700db
:101c5000040a2000848f50002700320004003c005a
:101c600004092000848f50003b003a002800370010
:101c7000020c2000828f50002f003200020f200043
:101c8000828f500034003a002b0037009380e90027
:101c90000200e00005003200810978001102fb001b
:101ca000cfa2de00612bb90028003700810978003f
:101cb000114278000482fb008002eb006033b80020
:101cc0002200370013027800e40052000200e00016
:101cd00005003200810978001102be004fabde0022
:101ce0008603780019003700810978001102be00d0
:101cf0006033b800150037009380e900810978004f
:101d000011027800cfa2de00612bb9000f0037006e
:101d100093027800e8805200810978003102be0009
:101d20002103be00090037009380e9000200e000b3
:101d300002003200f1ff37009380e900810978004a
:101d4000110278008002eb006033b8000498be00f6
:101d50000690be00100005000000050044082000a9
:101d6000848f50002500320008003c001408200039
:101d7000848f50001400320024082000848f50000b
:101d800024003200040820000c0037000409200061
:101d9000848f50001f00320004003c0084082000a3
:101da000848f500024003a000e003700040a2000ff
:101db000848f500011003200040c2000848f5000ea
:101dc0001d003a000d0037009380e900810978007a
:101dd0009100780001087800cf91de008288be0073
:101de000140037009380e9008109780091007800a1
:101df00001087800824878000e0037009380e900df
:101e00008109780091007800010878008208780044
:101e1000080037009380e90081097800910078007c
:101e2000010878006112b900612bb9008498be00e6
:101e30008690be001000050000000500010178003a
:101e400080017800008268000408a30005003200c9
:101e50001300370032407800805978000004e00019
:101e600014003200030278000208a300f9ff3a00d0
:101e70000300780001003700031878008200780022
:101e8000b2017800f5ef2f00838242000382ea005e
:101e9000048262000508280005026200f6ff320095
:101ea0000002780031417800025878000204e00016
:101eb000fbff3a0004007800000006000200fa0070
:101ec000881f780000047800e2bf9f0064815700fb
:101ed0000800780047fe0700980090000148a30022
:101ee000010032000080eb004f0478000080fa000f
:101ef000000006008f1fd1008f0207008f87e900c6
:101f00000000e00000000600809feb008a0207004e
:101f10008f87e9000000e0000000060081037800e0
:101f2000490007000001be006000b8000478a3006b
:101f300013003a006220e10015003e000d00390058
:101f40008301d1000281d3008180d3008301d100bd
:101f50000281d3008180d3008301d1000281d300ac
:101f60008180d3000538b000c42add00f300b20040
:101f70008381720007f0a70003f0a00000000600b4
:101f800083ff2700020020006110b900f9ff37002d
:101f900003ff2700f7ff37001400fa00889fbe00f8
:101fa0008a9fbe008c9fbe000004be000205be00da
:101fb000680047000a90be000890be009902070022
:101fc0000070a7000bf0a100304320009e0290009b
:101fd00080825200b0fe2f000028e10011003d0079
:101fe000b0fc2f000028e100150034001e0990000d
:101ff0008e0890007e0090000501b0000201d10023
:102000008180d3000080d3008502e800fbff3a0006
:102010000b00e000be023b0060001000e0801800f2
:10202000bb023700f0ff2f00f1ff27000b00e0009c
:10203000b7023b000100280000002000b402370076
:102040006000b800b2023700c70ade00f107b20034
:10205000f50fb20008003200e1cf4200020032006a
:102060000170a00024000500810f70000100320003
:102070000408050044000500810f700002003a00ca
:10208000140005008502e9000000400081c04800fe
:10209000fcff3b000170a00024000500020ab9000b
:1020a000001bb9000200b80081004200810043001b
:1020b000000006008c9fbe008a9fbe00889fbe0065
:1020c000ca0107000bf0a200040037008c9fbe007d
:1020d0008a9fbe00889fbe00c40107000c48e10033
:1020e0000b003a000c40e100020032008b010700b7
:1020f000400037008b066d003e0032000af0a10060
:10210000f3012000f2ff2f006110b9003900370001
:102110000c40e100370032000940e10001003600c8
:102120007e0107008a856d00cf5dde000b0575001e
:102130000006eb008804fd00890454000100320011
:102140007d0107000a04e00011003a000800e000e9
:102150002800320004004000858048000601490044
:10216000878149000358a300180032008301d10081
:102170000281d3008180d3000080d3000c86d3007d
:1021800001003900610676000804e80018003700f5
:1021900004005000858058000601590087815900cd
:1021a000060031000af0a2000c06ea0060001800e8
:1021b000e080180060011900e081190003003a0076
:1021c0000004eb000005eb000a0037000348a30001
:1021d00007003a000c0646000000480081804800d5
:1021e00002014900838149000804e900f7ff370034
:1021f000af013700c90137008c9fbe008a9fbe0027
:10220000889fbe00790107000b056d000940e100c1
:102210000a003a000800e000020032000c40e10031
:1022200006003a000af0a1000c047800f301200037
:10223000f2ff2f006110b9009d0037000c40e10053
:102240009b0032000800e000990032000c48e100d9
:1022500002003a000004eb00030037000900e00030
:1022600004003a000c0478006000b8006011b80067
:102270008f0037000348a30006003a00000040002a
:102280008180480002014900838149000804e90077
:10229000f8ff37000748a30006003a000402420096
:1022a00085824a0006034b0087834b008904e900be
:1022b000f8ff3700fd3f20008d84540009045400ce
:1022c0008a1f7800881f7800000478008104780055
:1022d00002057800830578006000b8006011b8003e
:1022e0000d042000050037000804440089844c00d8
:1022f0000a054d008b854d00080031000404540090
:1023000085845c0006055d0087855d008381d200c1
:102310008d06d300f4ff3b0007003700040444009f
:1023200085844c0006054d0087854d008381d200d1
:102330008d06d300ecff3b000804440089844c0068
:102340000a054d008b854d0008003100040454003f
:1023500085845c0006055d0087855d000281d200f2
:102360008d06d300f4ff3b0007003700040444004f
:1023700085844c0006054d0087854d000281d20002
:102380008d06d300ecff3b000804440089844c0018
:102390000a054d008b854d000800310004045400ef
:1023a00085845c0006055d0087855d008180d20024
:1023b0008d06d300f4ff3b000700370004044400ff
:1023c00085844c0006054d0087854d008180d20034
:1023d0008d06d300ecff3b000804440089844c00c8
:1023e0000a054d008b854d0008003100040454009f
:1023f00085845c0006055d0087855d000080d20055
:102400008d06d300f4ff3b000700370004044400ae
:1024100085844c0006054d0087854d000080d20064
:102420008d06d300ecff3b000b00e00004003d00f4
:102430000404440085844c0006054d0087854d004a
:102440000006eb008301d1000281d3008180d3001c
:102450000080d3000c86d3008301d1000281d30019
:102460008180d3000080d3000c86d30089047400df
:102470008b0575008b8474000100320061067600c4
:102480004f0478004f0578000348a30007003a0086
:102490000c06460000004800818048000201490007
:1024a000838149000804e900f7ff37000001370085
:1024b0001a0137008c9fbe008a9fbe00889fbe0015
:1024c000ca0007000b056d008a0578000c40e1008a
:1024d00008003a000900e00082003a000af0a1007a
:1024e0000c047800f3012000f2ff2f006110b90006
:1024f0007c0037000c48e10004003a008700070028
:102500000900e00077003a00f4ff37000800e0001f
:10251000740032000900e00002003a007f0007006a
:1025200070003700ed3f20008d8454000904440002
:102530008a1f7800881f7800871f7800861f780020
:10254000851f7800841f7800cb19dd00c515de00db
:102550008b8571004b11dd00450dde000a05710011
:10256000cb08dd00c504de00898470004b04dd006b
:102570000440b8000546b8008c80400060814e00e1
:10258000044eb8008c8040000d0149008001eb0032
:102590000318ad000456b8000c0141008d814900bc
:1025a0000002eb000420ad000646b8000c0141001b
:1025b0008d81490060024a00054eb8000c014100bf
:1025c0008d81490060024a000556b8008c814100a7
:1025d0000d024a008002eb000528ad000746b80056
:1025e0008c8141000d024a00e0824a00064eb8008c
:1025f0008c8141000d024a00e0824a004f067800bb
:102600000c5eb8008c8141000d024a00e0824a0055
:102610000656b8000c0242008d824a000003eb000f
:102620000630ad00074eb8000c0242008d824a0011
:1026300060034b004f0678000c5eb8000c024200ad
:102640008d824a0060034b000756b8008c8242001e
:102650000d034b008003eb000738ad004f067800f8
:102660000c5eb8008c8242000d034b00e0834b00ef
:102670004f0678000c5eb8000c0343008d834b00be
:102680004f0478004f0578000748a3000a003a007d
:102690000000400081804800020149008381490018
:1026a00004024a0085824a0006034b0087834b00e0
:1026b0000804e900f4ff370003067800808070000a
:1026c0008280700001003200610676008701780088
:1026d00006017800850078000400780088047800fe
:1026e000780037008d0037008c06460002003a0063
:1026f0000000a6000000060060004800e0804800de
:1027000060014900e08149000350a6000000060076
:102710008301d1000804e800000006000002fd006b
:102720008102fd000203fd008303fd008804fd001b
:102730008a05fd00000006007048e1001a0039001b
:102740007d0320000d48e1000a003900810570007a
:10275000830671008c8575008d8575000006eb0081
:102760000cd8e700610676006000b8006011b80080
:10277000000006007048e1000b0039008c0578006d
:1027800000067800010078008200780003017800dc
:102790008001eb0003d8e70061067600f084540066
:1027a000f4ff3a00000006006160e1000c48ad0053
:1027b000f08514008b06dd000966de000d0676004c
:1027c0008b0edd000900de000d0070008b16dd00b1
:1027d0008908de008d8070008b1edd000911de008f
:1027e0000d0171008919de00000006000d002800af
:1027f000fc7f20000d856100441cde00ef8161003c
:102800000c046400010032000340a0008d856300c9
:10281000c43cde00ef8363008c846400010032005e
:102820000740a0000c40e10006003a00ef8661007e
:1028300082867600818676008086760001003200ee
:10284000180037000c48e10007003a00ef866300eb
:1028500086867600858676008486760002003200c1
:10286000aeff07000f0037000348a30005003a0041
:102870008106700082867600838676000100320031
:102880000804e8000748a30005003a008506720026
:102890008686760087867600010032008904e8008b
:1028a00000000600cf047800cf0578001b00370039
:1028b0000002780081027800020378008303780028
:1028c000880478000cf0a70087ff0700fd7f200038
:1028d0000d40e100040035000d0478006000b800f0
:1028e0006011b8000d0037000800e0000b003c004c
:1028f00004007800850078000601780087017800e0
:10290000e18414008cff07000cf0a70076ff07009d
:102910000004eb000340a7000804e8004444dd0085
:102920006fc56100880175004f04be004f05be00f1
:102930004f06be0000000600889fbe008a9fbe00b2
:102940008c9fbe000404be000605be00809fbe0032
:10295000829fbe0021000700040678000800be0028
:102960000a01be001d000700840678004f03be0068
:102970004f02be008d4f76007fb0970013003300ea
:10298000f0ff2f008b8f6b0006003b000d066600ea
:102990000c00a7000a00370007f0a6001000200076
:1029a0000a003700880f5200898f5a008a0f5b0097
:1029b0008b8f5b00030039001000200001003e00f7
:1029c0000000200007f0a7000000ea004f06be004c
:1029d0004f05be004f04be000000060005ff2700a3
:1029e00005826100070032000428e1000100320086
:1029f000240005000600070001003a00440005001d
:102a00000408050002000700f9ff3a001400050061
:102a10006f82610081027000850271008502720080
:102a200000000600800078005002be005003be0087
:102a30004439de00f700b200f37f2000030161009b
:102a4000090032000218e10016003a008501720008
:102a500083017300838173000008200015003a0091
:102a600040002000130037008501720083017300cd
:102a70008381730005003a0004a8be0006a8be00ca
:102a8000100020000b0037000201e90004024200a0
:102a900085824a0006034b0087834b000748a3004a
:102aa000f9ff32000740a00004a8be0006a8be003f
:102ab000200020008000980092009800000006008e
:102ac000680447000294be000094be00fc04470066
:102ad0008694be008494be0009007800d1ff0700f0
:102ae00008007800cfff070099007800814f700040
:102af0000b003b000800be000a0007004f00b100b9
:102b000003003700f3ff2700f2ff2f006110b90028
:102b10004f06be004f05be004f04be000080fa0005
:102b200000000600e48240001078a3000700320095
:102b3000640240001178a3003400be001401be00fe
:102b4000040032000330a700000006003500be007c
:102b50001501be000330a000000006001800fa00b6
:102b6000889fbe008a9fbe008c1f78000004be00b4
:102b70000205be000802be000a03be00443ade00a1
:102b8000f07f20000006620020432000800f5600e6
:102b900067003c006022b8006033b8000800be0047
:102ba000d4fc07000000e000610032000802be0013
:102bb0000a03be00b4b79f00c5b79f00d6b79f00f9
:102bc000e7b79f00e00f5200e08f5a00e00f5b0074
:102bd000e08f5b000b003d006022b8000600200083
:102be000073324000800be000a01be0031fd0700c3
:102bf0006022b800060020000733240033fd0700e0
:102c00000a0037006022b8000600200007332400c5
:102c10000800be000a01be002cfd07006022b800bb
:102c2000060020000733240022fd07000802be0032
:102c30000a03be001ffd07000002be000203be0023
:102c4000f4b79f0085bf9f0096bf9f00a7bf9f005e
:102c5000e03f2000800f560017003c007fb0970037
:102c60008fb897001fb99700afb99700f0af9f00da
:102c700081b79f0092b79f00a3b79f006044b80040
:102c80006055b8003fb29700cfb297005fb397008e
:102c9000efb39700e00f5200e08f5a00e00f5b00a7
:102ca000e08f5b0022003d006044b8000a00200075
:102cb0000bff2b001e0037006022b8006033b80005
:102cc0007fb097008fb897001fb99700afb99700f2
:102cd0008dfc07000000e0000c0034007fb297007c
:102ce0008fba97001fbb9700afbb97000800be00cc
:102cf0000a01be00f5fc07006022b80006002000b3
:102d000007ff2300ebfc0700070037007fb29700a6
:102d10008fba97001fbb9700afbb97000800be009b
:102d20000a01be00e9fc07000004be000205be0067
:102d30000800be000a01be004f0678004f05be0025
:0c2d40004f04be000080fa0000000600f6
:020000040000fa
:102d4c006461000074650000546900006d6500004a
:102d5c0000740000656d0000706500007261000079
:102d6c007475000072650000457800007465000001
:102d7c00726e0000616c000000680000756d000050
:102d8c0069640000697400007945000078740000e3
:102d9c00657200006e6100006c000000746500003c
:102dac006d700000657200006174000075720000a7
:102dbc00654900006e740000657200006e610000d1
:102dcc006c000000687500006d690000646900000b
:102ddc0074790000496e000074650000726e00008a
:102dec00616c00000061000063630000656c000012
:102dfc00584d0000696e0000006100006363000024
:102e0c00656c0000584d0000617800000061000006
:102e1c0063630000656c0000594d0000696e000092
:102e2c000061000063630000656c0000594d0000f8
:102e3c00617800000061000063630000656c0000b5
:102e4c005a4d0000696e00000061000063630000d1
:102e5c00656c00005a4d00006178000000610000b4
:102e6c0063630000656c0000584f0000666600004c
:102e7c00736500007400000061630000636500006e
:102e8c006c5900004f66000066730000657400000a
:102e9c000061000063630000656c00005a4f000085
:102eac00666600007365000074000000776900001e
:102ebc006e64000053700000656500006400000043
:102ecc00756c000074720000617300006f75000077
:102edc006e640000000000000800000013000000f9
:102eec00100000001300000010000000090000009a
:102efc0009000000090000000900000009000000a2
:102f0c00090000000c0000000c0000000c00000088
:102f1c00090000000a000000222000003a220000f4
:102f2c00222c00000a2500002e3400006600000050
:102f3c00253800002e3200006600000045720000ab
:102f4c00726f0000722c0000204300006f6d0000b7
:102f5c006d6100006e640000204e00006f74000074
:102f6c0020520000656300006f6700006e6900006e
:102f7c007a65000064200000200a000000000000b8
:020000040000fa
:102f8c006800fa0000027800313798000000eb006e
:102f9c00000f78000b0037001e0078000000e800de
:102fac00be3090000080400090407800214798008f
:102fbc00ae409000660047001e00400001487800bb
:102fcc001e0fe8001e007800ff0f5000f2ff3400c7
:102fdc003e3090004002b000104078000080fb00b2
:102fec008000eb00c801dd00020020003e309000a4
:102ffc003002b000104078000080fb008000eb0035
:10300c00c000dd0000002000000171008181710012
:10301c003e3090002002b000104078000080fb0091
:10302c004800dd00cf80de0000017100818171005d
:10303c003e3090001002b000104078000080fb0081
:10304c008000eb0000007100818071001037980047
:10305c0021379800200620000e0040002007980021
:10306c002e0090001000be003017980041179800f9
:10307c003e3090008002b000104078000080fb00d1
:10308c008000eb00c801dd00020020003e30900003
:10309c007002b000104078000080fb008000eb0054
:1030ac00c000dd0000002000000171008181710072
:1030bc003e3090006002b000104078000080fb00b1
:1030cc004800dd00cf80de000001710081817100bd
:1030dc003e3090005002b000104078000080fb00a1
:1030ec008000eb00000071008180710010379800a7
:1030fc0021379800200620000e0040002007980081
:10310c002e0090001000be00501798006117980018
:10311c003e309000c002b000104078000080fb00f0
:10312c008000eb00c801dd00020020003e30900062
:10313c00b002b000104078000080fb008000eb0073
:10314c00c000dd00000020000001710081817100d1
:10315c003e309000a002b000104078000080fb00d0
:10316c004800dd00cf80de0000017100818171001c
:10317c003e3090009002b000104078000080fb00c0
:10318c008000eb0000007100818071001037980006
:10319c0021379800200620000e00400020079800e0
:1031ac002e0090001000be0070179800011f9800b0
:1031bc003e3090000003b000104078000080fb000f
:1031cc008000eb00c801dd00020020003e309000c2
:1031dc00f002b000104078000080fb008000eb0093
:1031ec00c000dd0000002000000171008181710031
:1031fc003e309000e002b000104078000080fb00f0
:10320c004800dd00cf80de0000017100818171007b
:10321c003e309000d002b000104078000080fb00df
:10322c008000eb0000007100818071001037980065
:10323c0021379800200620000e004000200798003f
:10324c002e0090001000be00101f9800211f980047
:10325c003e3090004003b000104078000080fb002e
:10326c008000eb00c801dd00020020003e30900021
:10327c003003b000104078000080fb008000eb00b1
:10328c00c000dd0000002000000171008181710090
:10329c003e3090002003b000104078000080fb000e
:1032ac004800dd00cf80de000001710081817100db
:1032bc003e3090001003b000104078000080fb00fe
:1032cc008000eb00000071008180710010379800c5
:1032dc0021379800200620000e004000200798009f
:1032ec002e0090001000be00301f9800411f980067
:1032fc003e3090008003b000104078000080fb004e
:10330c008000eb00c801dd00020020003e30900080
:10331c007003b000104078000080fb008000eb00d0
:10332c00c000dd00000020000001710081817100ef
:10333c003e3090006003b000104078000080fb002d
:10334c004800dd00cf80de0000017100818171003a
:10335c003e3090005003b000104078000080fb001d
:10336c008000eb0000007100818071001037980024
:10337c0021379800200620000e00400020079800fe
:10338c002e0090001000be00501f9800611f980086
:10339c003e309000c003b000104078000080fb006d
:1033ac008000eb00c801dd00020020003e309000e0
:1033bc00b003b000104078000080fb008000eb00f0
:1033cc00c000dd000000200000017100818171004f
:1033dc003e309000a003b000104078000080fb004d
:1033ec004800dd00cf80de0000017100818171009a
:1033fc003e3090009003b000104078000080fb003d
:10340c008000eb0000007100818071001037980083
:10341c0021379800200620000e004000200798005d
:10342c002e0090001000be00701f9800012798001d
:10343c003e3090000004b000104078000080fb008b
:10344c008000eb00c801dd00020020003e3090003f
:10345c00f003b000104078000080fb008000eb000f
:10346c00c000dd00000020000001710081817100ae
:10347c003e309000e003b000104078000080fb006c
:10348c004800dd00cf80de000001710081817100f9
:10349c003e309000d003b000104078000080fb005c
:1034ac008000eb00000071008180710010379800e3
:1034bc0021379800200620000e00400020079800bd
:1034cc002e0090001000be001027980021279800b5
:1034dc003e3090004004b000104078000080fb00ab
:1034ec008000eb00c801dd00020020003e3090009f
:1034fc003004b000104078000080fb008000eb002e
:10350c00c000dd000000200000017100818171000d
:10351c003e3090002004b000104078000080fb008a
:10352c004800dd00cf80de00000171008181710058
:10353c003e3090001004b000104078000080fb007a
:10354c008000eb0000007100818071001037980042
:10355c0021379800200620000e004000200798001c
:10356c002e0090001000be003027980041279800d4
:10357c003e3090008004b000104078000080fb00ca
:10358c008000eb00c801dd00020020003e309000fe
:10359c007004b000104078000080fb008000eb004d
:1035ac00c000dd000000200000017100818171006d
:1035bc003e3090006004b000104078000080fb00aa
:1035cc004800dd00cf80de000001710081817100b8
:1035dc003e3090005004b000104078000080fb009a
:1035ec008000eb00000071008180710010379800a2
:1035fc0021379800200620000e004000200798007c
:10360c002e0090001000be005027980061279800f3
:10361c003e309000c004b000104078000080fb00e9
:10362c008000eb00c801dd00020020003e3090005d
:10363c00b004b000104078000080fb008000eb006c
:10364c00c000dd00000020000001710081817100cc
:10365c003e309000a004b000104078000080fb00c9
:10366c004800dd00cf80de00000171008181710017
:10367c003e3090009004b000104078000080fb00b9
:10368c008000eb0000007100818071001037980001
:10369c0021379800200620000e00400020079800db
:1036ac002e0090001000be0070279800012f98008b
:1036bc003e3090000005b000104078000080fb0008
:1036cc008000eb00c801dd00020020003e309000bd
:1036dc00f004b000104078000080fb008000eb008c
:1036ec00c000dd000000200000017100818171002c
:1036fc003e309000e004b000104078000080fb00e9
:10370c004800dd00cf80de00000171008181710076
:10371c003e309000d004b000104078000080fb00d8
:10372c008000eb0000007100818071001037980060
:10373c0021379800200620000e004000200798003a
:10374c002e0090001000be00102f9800212f980022
:10375c003e3090004005b000104078000080fb0027
:10376c008000eb00c801dd00020020003e3090001c
:10377c003005b000104078000080fb008000eb00aa
:10378c00c000dd000000200000017100818171008b
:10379c003e3090002005b000104078000080fb0007
:1037ac004800dd00cf80de000001710081817100d6
:1037bc003e3090001005b000104078000080fb00f7
:1037cc008000eb00000071008180710010379800c0
:1037dc0021379800200620000e004000200798009a
:1037ec002e0090001000be00302f9800412f980042
:1037fc003e3090008005b000104078000080fb0047
:10380c008000eb00c801dd00020020003e3090007b
:10381c007005b000104078000080fb008000eb00c9
:10382c00c000dd00000020000001710081817100ea
:10383c003e3090006005b000104078000080fb0026
:10384c004800dd00cf80de00000171008181710035
:10385c003e3090005005b000104078000080fb0016
:10386c008000eb000000710081807100103798001f
:10387c0021379800200620000e00400020079800f9
:10388c002e0090001000be00502f9800612f980061
:10389c00e60047002d000900311a7800c405b1007c
:1038ac00040078000080fa0000000600ca00fa004c
:1038bc00603798006e309000904078002147980057
:1038cc002e4090008080fb00a00f2000808f5000c5
:1038dc0025003a00e00620000e004000ee3090007b
:1038ec00a7fd07006e014700e1062000810047009c
:1038fc002d00090031197800100020005037980075
:10390c000000eb00000f7800080037001e00780064
:10391c00004078001042b0008040780066004700fc
:10392c001e004000014878001e0fe8001e007800c1
:10393c00e70f5000f5ff3400cf05b00040fa2f0020
:10394c000f0040006e0147002d000900321878006e
:10395c00c005b1000f000700cf05b100813e20006b
:10396c00a203070009003700407a290020079800bd
:10397c00010220002e0090009c030700d8020700d3
:10398c00afe3a900afe3a800000000000080fa003c
:10399c00000006002a00fa00b0c7b3000ce8b7001c
:1039ac00a0c0b3000de8b70020002000000f780085
:1039bc000000eb001007980031023700c080200097
:1039cc001e00400021c2b300014878001e0fe80021
:1039dc000000eb00200798000f0037001e0090003d
:1039ec0080004000c0ef2000008040009000780074
:1039fc002e0090000080400090407800c080200095
:103a0c001e004000014878001e0fe8002e009000b8
:103a1c000000e800200798001e0090008000400085
:103a2c002077290000804000900078002e00900044
:103a3c00808f5000e9ff3c000000eb00300798003d
:103a4c000b003700217929003e00900000804000d7
:103a5c0090407800c08020001e0040000148780093
:103a6c001e0fe8003e0090000000e80030079800b0
:103a7c003e009000e30f5000f2ff36001e00900055
:103a8c00cf80de00f200200003002000820f5000e7
:103a9c00838f5800e5013e00006001000f003700e5
:103aac00210037003e0037005b00370078003700fc
:103abc0095003700b2003700cf003700ec0037001c
:103acc000901370026013700420137005f0137003a
:103adc007c01370099013700b60137000000eb007c
:103aec00400798000c003700e1f92f008e80400051
:103afc004e0090000080400090407800c080200074
:103b0c001e004000014878001e0fe8004e00900097
:103b1c000000e800400798004e009000ff0f500096
:103b2c00f1ff3600c20137007e9897008ea09700f7
:103b3c004040880051408800404080005140800047
:103b4c00809fbe0090792900801f780000802000a3
:103b5c004cf20700e68757000000eb005007980076
:103b6c000b003700de009000008020000080400039
:103b7c0090407800c08020001e0040000148780072
:103b8c001e0fe8005e0090000000e800500798004f
:103b9c005e009000e70f5000f2ff3600a4013700e2
:103bac001ea09700aea097004040880051408800ae
:103bbc004040800051408000809fbe0090792900d9
:103bcc00801f7800008020002ef20700e687570047
:103bdc000000eb00600798000b003700ee0090002f
:103bec00008020000080400090407800c0802000c1
:103bfc001e004000014878001e0fe8006e00900087
:103c0c000000e800600798006e009000e70f50007d
:103c1c00f2ff3600860137003ea09700cea0970039
:103c2c004040880051408800404080005140800056
:103c3c00809fbe0090792900801f780000802000b2
:103c4c0010f20700e68757000000eb0070079800a1
:103c5c000b003700fe009000008020000080400028
:103c6c0090407800c08020001e0040000148780081
:103c7c001e0fe8007e0090000000e800700798001e
:103c8c007e009000e70f5000f2ff3600680137000d
:103c9c005ea09700eea0970040408800514088003d
:103cac004040800051408000809fbe0090792900e8
:103cbc00801f780000802000f2f10700e687570093
:103ccc000000eb00000f98000b0037008e089000ee
:103cdc00008020000080400090407800c0802000d0
:103cec001e004000014878001e0fe8000e089000ee
:103cfc000000e800000f98000e089000e70f50003d
:103d0c00f2ff36004a0137007ea097008ea897007c
:103d1c004040880051408800404080005140800065
:103d2c00809fbe0090792900801f780000802000c1
:103d3c00d4f10700e68757000000eb00100f980045
:103d4c000b0037009e08900000802000008040008f
:103d5c0090407800c08020001e0040000148780090
:103d6c001e0fe8001e0890000000e800100f9800dd
:103d7c001e089000e70f5000f2ff36002c013700b0
:103d8c001ea89700aea897004040880051408800bc
:103d9c004040800051408000809fbe0090792900f7
:103dac00801f780000802000b6f10700e6875700de
:103dbc000000eb00200f98000b003700ae089000bd
:103dcc00008020000080400090407800c0802000df
:103ddc001e004000014878001e0fe8002e089000dd
:103dec000000e800200f98002e089000e70f50000c
:103dfc00f2ff36000e0137003ea89700cea89700c0
:103e0c004040880051408800404080005140800074
:103e1c00809fbe0090792900801f780000802000d0
:103e2c0098f10700e68757000000eb00300f980070
:103e3c000b003700be08900000802000008040007e
:103e4c0090407800c08020001e004000014878009f
:103e5c001e0fe8003e0890000000e800300f9800ac
:103e6c003e089000e70f5000f2ff3600f0003700dc
:103e7c005ea89700eea8970040408800514088004b
:103e8c004040800051408000809fbe009079290006
:103e9c00801f7800008020007af10700e687570029
:103eac000000eb00400f98000b003700ce0890008c
:103ebc00008020000080400090407800c0802000ee
:103ecc001e004000014878001e0fe8004e089000cc
:103edc000000e800400f98004e089000e70f5000db
:103eec00f2ff3600d20037007ea897008eb0970004
:103efc004040880051408800404080005140800084
:103f0c00809fbe0090792900801f780000802000df
:103f1c005cf10700e68757000000eb00500f98009b
:103f2c000b003700de08900000802000008040006d
:103f3c0090407800c08020001e00400001487800ae
:103f4c001e0fe8005e0890000000e800500f98007b
:103f5c005e089000e70f5000f2ff3600b400370007
:103f6c001eb09700aeb097004040880051408800ca
:103f7c004040800051408000809fbe009079290015
:103f8c00801f7800008020003ef10700e687570074
:103f9c000000eb00600f98000b003700ee0890005b
:103fac00008020000080400090407800c0802000fd
:103fbc001e004000014878001e0fe8006e089000bb
:103fcc000000e800600f98006e089000e70f5000aa
:103fdc00f2ff36003eb09700ceb09700404088000c
:103fec00514088004040800051408000809fbe00be
:103ffc0090792900801f78000080200021f10700b3
:10400c00e68757000000eb00700f98000b0037009c
:10401c00fe08900000802000008040009040780056
:10402c00c08020001e004000014878001e0fe800f0
:10403c007e0890000000e800700f98007e08900049
:10404c00e70f5000f2ff3600790037005eb09700a2
:10405c00eeb09700404088005140880040408000fe
:10406c0051408000809fbe0090792900801f78000d
:10407c000080200003f10700e68757000000eb00ea
:10408c00001798000b0037008e1090000080200065
:10409c000080400090407800c08020001e0040004e
:1040ac00014878001e0fe8000e1090000000e80098
:1040bc00001798000e109000e70f5000f2ff36002a
:1040cc005b0037007eb097008eb8970040408800a8
:1040dc00514088004040800051408000809fbe00cd
:1040ec0090792900801f780000802000e5f00700ff
:1040fc00e68757000000eb00101798000b00370004
:10410c009e109000008020000080400090407800bd
:10411c00c08020001e004000014878001e0fe800ff
:10412c001e1090000000e800101798001e10900060
:10413c00e70f5000f2ff36003d0037001eb8970025
:10414c00aeb8970040408800514088004040800045
:10415c0051408000809fbe0090792900801f78001c
:10416c0000802000c7f00700e68757000000eb0036
:10417c00201798000b003700ae1090000080200034
:10418c000080400090407800c08020001e0040005d
:10419c00014878001e0fe8002e1090000000e80087
:1041ac00201798002e109000e70f5000f2ff3600f9
:1041bc001f0037003eb89700ceb8970040408800eb
:1041cc00514088004040800051408000809fbe00dc
:1041dc00e0792900801f780000802000a9f00700fa
:1041ec00e68757000000eb00301798000b003700f3
:1041fc00be109000008020000080400090407800ad
:10420c00c08020001e004000014878001e0fe8000e
:10421c003e1090000000e800301798003e1090000f
:10422c00e70f5000f2ff36000100370000000000dd
:10423c000000eb00401798000b0037006179290053
:10424c004e1090000080400090407800c08020000c
:10425c001e004000014878001e0fe8004e10900030
:10426c000000e800401798004e109000e20f50003c
:10427c00f2ff36001e0090000000e80010079800c6
:10428c001e009000ef0f5000ccfd34009e80e90022
:10429c00c08020000080400001c2b30001487800bb
:1042ac00c08020001e004000d1c7b3000148780038
:1042bc00c08020000080fa00000006000200fa0016
:1042cc00004f7800a06f8000e10f500021003a00f1
:1042dc00c06f8000e20f50001e003200b16f8000f2
:1042ec00f00f2000808f50000c003400f62def00f2
:1042fc00f42def0020002000c06f8800b16f80000b
:10430c0040cf2000008040001e487800b06f800035
:10431c000000e800b06f8800090037001000200092
:10432c00c06f8800b16f800040bf2000008040004b
:10433c001e487800b06f80000000e800b06f880065
:10434c00b16f800040bf2000008040001e48780004
:10435c0024003700a06f80000000e00021003a002c
:10436c00d06f8000e20f50001e003200b16f800051
:10437c00f00f2000808f50000d003400f62def0060
:10438c0010002000a06f880020002000d06f880053
:10439c00b16f800040bf2000008040001e487800b4
:1043ac00b06f80000000e800b06f88000900370093
:1043bc0010002000d06f8800b16f800040cf20002b
:1043cc00008040001e487800b06f80000000e800bc
:1043dc00b06f8800b16f800040cf2000008040009b
:1043ec001e4878000080fa00000006000000fa0069
:1043fc00c06f8000e20f500003003200d06f8000cd
:10440c00e20f500002003a0010c0b3000100370068
:10441c000040eb000080fa00000006000600fa00e5
:10442c0020079800c06f8000e20f500011003a0086
:10443c000000eb00000f7800080037001e00780029
:10444c00ae0090000080400041bf20009e804000e4
:10445c0091407800014878001e0fe800f00f200012
:10446c009e007800808f5000f4ff3400f82def0090
:10447c0019003700d06f8000e20f500016003a0090
:10448c000000eb00100798000d0037001e00900094
:10449c00ae009000008040009e00900002102000b2
:1044ac000101410041bf2000810041009140780092
:1044bc00014878001e0090000000e80010079800ea
:1044cc009e009000f00f2000808f5000efff340012
:1044dc00fa2def00000000000080fa00000006003a
:1044ec000000fa00f62def00f82def00fa2def008a
:1044fc0010002000a06f88000080fa000000060069
:10450c000000fa007ce6a9007cc6a90074e6a800ad
:10451c0074c6a900b13d800000fc2f000080600033
:10452c007000b300b03d8800d13e800000f82f0031
:10453c00008060005000b300d03e8800ae23ef0036
:10454c00711d8000f0cf2f0000806000701d88006e
:10455c00ae63a900711d800090ff2f0000806000e9
:10456c00701d8800af63a800ae23a90030032000a3
:10457c00b01d880061058000f0ff280000806000fd
:10458c0000e0a000600588008960a9009960a8007f
:10459c00811d8000f0f32f00008060000060a000ff
:1045ac00801d8800afe3a800b143a8000080fa008a
:1045bc00000006000000fa0000000000801d8000d2
:1045cc00610060000000e000fcff3200801d8000f4
:1045dc00620060000000e00001003200b023a9007e
:1045ec00a01d8000004078000080fa00000006004a
:1045fc000000fa00811d8000002020000080600077
:10460c000000e00007003a00811d800000402000ff
:10461c00008060000000e00002003200100020006a
:10462c00010037000000eb000080fa0000000600db
:10463c000200fa00004f780000000000811d80008d
:10464c0000202000008060000000e000fbff3a002a
:10465c001e00fb00901d88000080fa000000060080
:10466c000600fa0010079800210798000000eb00e4
:10467c00000f78000d00370000000000d11c8000f6
:10468c0000202000008060000000e000fbff3a00ea
:10469c001e0078009e0090000080400010407800c2
:1046ac000000fb00e01c88001e0fe8002e009000ac
:1046bc009e007800808f5000efff35000080fa00dc
:1046cc00000006000000fa007ca6a9007c86a90068
:1046dc0074a6a8007486a900a13d800000fc2f00e0
:1046ec00008060002001b300a03d8800813f800065
:1046fc0000f82f00008060003000b300803f88007d
:10470c00c11c8000f0cf2f0000806000c01c88000e
:10471c009863a900c11c800090ff2f0000806000ee
:10472c00c01c88009963a80030032000001d88007d
:10473c0099e3a8009b43a8000080fa000000060043
:10474c000000fa0000000000d01c80006100600036
:10475c000000e000fcff3200d01c80006200600012
:10476c000000e000010032009a23a900f01c800038
:10477c00004078000080fa00000006000000fa00fb
:10478c00d11c800000202000008060000000e000b0
:10479c0007003a00d11c800000402000008060001f
:1047ac000000e00002003200100020000100370081
:1047bc000000eb000080fa00000006000200fa0086
:1047cc00004f780000000000d11c80000020200069
:1047dc00008060000000e000fbff3a001e00fb00c0
:1047ec00e01c88000080fa00000006000600fa00b9
:1047fc0010079800210798000000eb00000f7800cc
:10480c000d00370000000000d11c800000202000ab
:10481c00008060000000e000fbff3a001e00780002
:10482c009e00900000804000104078000000fb00cb
:10483c00e01c88001e0fe8002e0090009e007800ff
:10484c00808f5000efff35000080fa00000006005a
:020000040000fa
:10485c00f40b00000802000080000000fc0d0000ba
:10486c000001000080000000fc0e00002000000091
:10487c0082000000a696af0096c39600d496e8007e
:10488c0096f9960003970d009717970021972b0028
:10489c009735970042974f00975c970066970000fa
:1048ac0000080000f4030000800000003a0f000034
:1048bc001000000082000000494e460000696e00a6
:1048cc0066004e00414e00006e616e00000000005c
:1048dc001c0f00001e00000082000000286e690002
:1048ec006c29000025006800076c09004c836a00e5
:1048fc009074a0007ac000008068880000846c006e
:10490c00820081004a0f00000200000080000000bd
:04491c000000000097
:020000040000fa
:104920000000fa0000002300100888000621ef00b4
:104930006821ef006a21ef000c21ef000e21ef004b
:104940007821ef007c21ef007e21ef008021ef0035
:104950008221ef008421ef008621ef002200200059
:1049600080072000a1092000131020008049780052
:1049700081497800824978000001eb006004200042
:1049800071052000031020008049780081497800db
:10499000824978000080fa00000006000000fa005a
:1049a000b066a900b866a9000080fa000000060001
:1049b0000000fa00b466a8000080fa0000000600bb
:1049c0000000fa00b466a9000080fa0000000600aa
:1049d0000000fa00a03580004300de006140600066
:1049e0000004a200614060000080fb0061006000e4
:1049f0004300dd00a13580000130a10001007000fe
:104a0000a03588000080fa00000006000000fa00cf
:104a100083e0a8000080fa00000006000000fa0011
:104a200083e0a9000080fa00000006000000fa0000
:104a300081e0a900b1058000f08f2f008080600028
:104a40000060200001007000b00588009bc0a80035
:104a50008bc0a9000080fa00000006000000fa00e8
:104a60000d000700cdff0700010037000000000027
:104a700061fe07000004e000fcff3200ccff0700ed
:104a8000c0df200068fe0700c0df20008afb0700af
:104a9000cbff0700f6ff37000000fa00a0ff070079
:104aa0000bff070099fe070090fe0700dfff0700dd
:104ab000d6ff07000000eb000080fa0000000600af
:104ac0000000fa00e5ff07000000eb000080fa009c
:044ad00000000600dc
:020000040000fa
:020000040001f9
:045e0000ffffff00a1
:020000040000fa
:020000040001f9
:045e2000ffffff0081
:020000040000fa
:020000040001f9
:045e3000faffff0076
:020000040000fa
:020000040001f9
:045e3800bdffff00ab
:020000040000fa
:020000040001f9
:045e4000ffffff0061
:020000040000fa
:020000040001f9
:045e4800ffffff0059
:020000040000fa
:020000040001f9
:045e5000dfffff0071
:020000040000fa
:020000040001f9
:045e5800ffffff0049
:020000040000fa
:020000040001f9
:045e6000ffffff0041
:020000040000fa
:020000040001f9
:045e6800ffffff0039
:020000040000fa
:020000040001f9
:045e7000ffffff0031
:020000040000fa
:020000040001f9
:045e7800ffffff0029
:020000040000fa
:020000040001f9
:045e8000ffffff0021
:00000001FF
